#define FIRMWARE \
":030000000206876E" \
":10068700787FE4F6D8FD9030007F007E10E4F0A379" \
":0A069700DFFCDEFA7581321202BFAB" \
":1002BF0075E80675F804D2AFC2ADC2ACC2ABC2AA24" \
":1002CF00C2A9C2A8E4903FFFF0F52CF52B909180C6" \
":1002DF0004F0E4909100F0A37480F0E4909105F0A5" \
":1002EF00A3F0909108F0A3F0A3F090910CF0A3F07D" \
":1002FF00A37408F0E4909110F0A3F0A37408F0E455" \
":10030F00909141F0909140F0909146F0909145F08E" \
":10031F00909144F090914AF0909149F0909148F06B" \
":10032F0090918004F0909141E030E7F9903FFFE029" \
":10033F0004F0903FF0740FF0903FF27400F0A3744C" \
":10034F0060F0A3740AF0903FF6E47A04F0A3DAFCAD" \
":10035F001204C5903FF6E055F060D7903FFFE004E0" \
":10036F00F0E52C452B7009E52A60F61204C580F1E3" \
":10037F00E52C452B60EBE52A60F61204C580F122CF" \
":0F06F800903FF3E0909101F0903FF17401F022F8" \
":1006A100903FF3E0FC903FF4E0909106F0909105CB" \
":0906B100ECF0903FF17401F0221D" \
":1005D100903FF2E0FC903FF3E0FD903FF4E090911A" \
":1005E1000AF0ED909109F0EC909108F0903FF174D0" \
":0305F10001F022F4" \
":0D071600752800752930903FF17401F02224" \
":1005F400903FF2E0FC903FF3E0F51F8C1E903FF437" \
":10060400E0FC903FF5E0F5218C20903FF17401F07F" \
":0106140022C3" \
":1006D100903FF2E05403F9903FFCE049F0903FF184" \
":0406E1007401F0228E" \
":10061500903FFCE0FEA3E0FF903FF2E0FAA3E08A02" \
":0F06250082F583EEF0EFA3F0903FF17401F02225" \
":10063400903FF2E05401600B752B01752800752979" \
":0D064400308003752B00903FF17401F0220F" \
":0F070700909141E0903FF3F0903FF17401F022A8" \
":1006BA00909145E0FCA3E0903FF4F0903FF3ECF01A" \
":0706CA00903FF17401F022E2" \
":10065100909148E0FCA3E0FDA3E0903FF2ECF0A311" \
":0B066100EDF0A3F0903FF17401F022D7" \
":0D0723007526F8752737903FF17401F0221C" \
":10066C00903FF2E522F0A3E523F0903FF4E524F06F" \
":0B067C00A3E525F0903FF17401F0228F" \
":1006E500903FF2E044CFF9903FFCE059903FF17420" \
":0306F50001F022EF" \
":10058500903FF2E054016016903D20E4F07A07A315" \
":10059500F0DAFC752600752736752C018027752C39" \
":1005A50000E5269439F9E527400C752200850323DB" \
":1005B500F5248925800F752400752503E5279436D4" \
":0C05C500F523752200903FF1740EF02227" \
":10044F0090910812055400000000903FF2E0FCA3C9" \
":10045F00E0FDA3E0FEA3E0FF909104120548909108" \
":10046F0001E044E0F0909106E0903D07F0E4F52DB7" \
":10047F00F52EAE2DAF2EEE3395E0FDFC7B807A3856" \
":10048F0079017800D31205324024909141E05460F5" \
":10049F00600A909141E0903D06F08012909141E00A" \
":1004AF00903D06F0052EE52E70C8052D80C4909165" \
":0604BF0001E05498F02258" \
":10038F00E4909108F0909109F090910AF0903FF26B" \
":10039F00E0FCA3E0FDA3E09091064408F0909105E6" \
":1003AF00EDF0909104ECF0909101E044E0F0E4F571" \
":1003BF002FF530AE2FAF30EE3395E0FDFC7B807A1A" \
":1003CF003879017800D31205325003020418909146" \
":1003DF0001E044E0F0909141E05460602190910180" \
":1003EF00E05498F0909148E0F9A3E0FAA3E0903F31" \
":1003FF00F8F0903FF7EAF0903FF6E9F0800B053008" \
":10040F00E5307002052F0203C2E4F52FF530AE2F51" \
":10041F00AF30EE3395E0FDFC7B807A3879017800C0" \
":10042F00D31205324012909141E05460600A0530BA" \
":10043F00E5307002052F80D6909101E05498F0229C" \
":1001DF00903FF6E0F519A3E0F51AA3E0F51B903F69" \
":1001EF00F2E0FCA3E0FDA3E0909106F0909105ED05" \
":1001FF00F0909104ECF0903FF6E0FCA3E0FDA3E05B" \
":10020F0090910AF0909109EDF0909108ECF0903FE9" \
":10021F00F17401F0909106E05408600412038F22EC" \
":10022F00909101E044E0F0751D03E51D70FC909185" \
":10023F0001E05498F0751D14E51D70FCE4F531F5DF" \
":10024F0032AE31AF32EE3395E0FDFC7B807A3879F8" \
":10025F00017800D31205324012909141E054606052" \
":10026F000A0532E5327002053180D6AE31AF32EE7B" \
":10027F003395E0FDFC7B807A3879017800D3120545" \
":10028F0032401F12038F903FF6E09519700DA3E0D7" \
":10029F00951A7007A3E0951B700122903FF1E5FFBF" \
":1002AF00F022909101E05498F0903FF174FFF0220A" \
":1004C500903FFD7401F0E4903FF1F075F005903F29" \
":1004D500F0E0A49004DC731206F880491206A180AE" \
":1004E500441205D1803F120716803A1205F4803573" \
":1004F5001206D18030120615802B12063480261282" \
":10050500070780211206BA801C12065180171207B0" \
":1005150023801212066C800D1206E58008120585EF" \
":0D05250080031201DFE4F52A903FFDF02273" \
":0300430002004672" \
":10004600C0E0C0F0C083C082C0D075D010C2AF532C" \
":10005600E8F9750D00751800E52C7003020104908F" \
":100066009141E05418700302010490914CE0C4548D" \
":100076000FFA90914DE0C4F50C54F04A852682851E" \
":100086002783F0052690914EE0C4530C0F54F0459B" \
":100096000C852682852783F00526909150E0C4546E" \
":1000A6000FFA909151E0C4F50C54F04A85268285EA" \
":1000B6002783F00526909152E0C4530C0F54F04567" \
":1000C6000C852682852783F00526E526602EE52603" \
":1000D60064F4601AE52664F07024E527643F701E18" \
":1000E6004318207527377526F8750D018010E5270A" \
":1000F600643B700A431810750D0180020527E52B35" \
":1001060070030201AA909145E0540C600A90910197" \
":10011600E054E7F00201AA909101E04498F08528A6" \
":1001260082852983E0C4F50E90910CF00528852878" \
":1001360082852983E0C4F954F0530E0F450E909141" \
":100146000DF0A3E9F00528852882852983E0C4F50A" \
":100156000E909110F00528852882852983E0C4F940" \
":0D01660054F0530E0F450E909111F0A3E9D7" \
":10017300F00528E528602EE52864FC601AE528646C" \
":10018300F87024E5296437701E4318027529307509" \
":100193002800750D018010E5296433700A431801A6" \
":1001A300750D0180020529E50D600C903FFCE518F3" \
":1001B300F09090087401F0909181E054FC6004E0A9" \
":1001C3005403F0781DE660011643E80643F804D2B1" \
":0C01D300AFD0D0D082D083D0F0D0E0328A" \
":03003B00020003BD" \
":10000300C0E0C083C082C0D075D010C2AF53E8F93E" \
":10001300752A01903FFD7401F090900CE0FF339539" \
":10002300E08F0BF50AF509F50843E806D2AFD0D007" \
":07003300D082D083D0E0323F" \
":10053200EB9FF5F0EA9E42F0E99D42F0EC6480C840" \
":0605420064809845F022E0" \
":0C054800ECF0A3EDF0A3EEF0A3EFF02226" \
":10055400A8828583F0D083D08212056B12056B12BA" \
":10056400056B12056BE473E493A3C583C5F0C583DF" \
":10057400C8C582C8F0A3C583C5F0C583C8C582C8F1" \
":010584002254" \
":00000001FF"
